{
  "contractName": "Bidding",
  "abi": [
    {
      "constant": true,
      "inputs": [],
      "name": "numOfCandidates",
      "outputs": [
        {
          "name": "",
          "type": "uint256"
        }
      ],
      "payable": false,
      "stateMutability": "view",
      "type": "function"
    },
    {
      "inputs": [],
      "payable": false,
      "stateMutability": "nonpayable",
      "type": "constructor"
    },
    {
      "constant": false,
      "inputs": [],
      "name": "BiddForMonth",
      "outputs": [],
      "payable": false,
      "stateMutability": "nonpayable",
      "type": "function"
    },
    {
      "constant": false,
      "inputs": [],
      "name": "clean",
      "outputs": [],
      "payable": false,
      "stateMutability": "nonpayable",
      "type": "function"
    },
    {
      "constant": false,
      "inputs": [],
      "name": "setup",
      "outputs": [],
      "payable": false,
      "stateMutability": "nonpayable",
      "type": "function"
    },
    {
      "constant": false,
      "inputs": [],
      "name": "deposit",
      "outputs": [],
      "payable": true,
      "stateMutability": "payable",
      "type": "function"
    },
    {
      "constant": false,
      "inputs": [
        {
          "name": "_amount",
          "type": "uint256"
        }
      ],
      "name": "withdraw",
      "outputs": [],
      "payable": true,
      "stateMutability": "payable",
      "type": "function"
    },
    {
      "constant": false,
      "inputs": [],
      "name": "distribute",
      "outputs": [],
      "payable": true,
      "stateMutability": "payable",
      "type": "function"
    }
  ],
  "bytecode": "0x608060405234801561001057600080fd5b5033600360006101000a81548173ffffffffffffffffffffffffffffffffffffffff021916908373ffffffffffffffffffffffffffffffffffffffff160217905550600280819055506005600081905550600a600181905550610080610085640100000000026401000000009004565b6101f2565b3373ffffffffffffffffffffffffffffffffffffffff16600360009054906101000a900473ffffffffffffffffffffffffffffffffffffffff1673ffffffffffffffffffffffffffffffffffffffff1614156101f05760056000815480929190600101919050555060055460076000600554815260200190815260200160002060000181905550600060076000600554815260200190815260200160002060010160006101000a81548160ff021916908315150217905550600060076000600554815260200190815260200160002060010160016101000a81548173ffffffffffffffffffffffffffffffffffffffff021916908373ffffffffffffffffffffffffffffffffffffffff1602179055506000600760006005548152602001908152602001600020600401819055506000600760006005548152602001908152602001600020600201819055506000600760006005548152602001908152602001600020600301819055505b565b6108b4806102016000396000f300608060405260043610610083576000357c0100000000000000000000000000000000000000000000000000000000900463ffffffff1680632e1a7d4d1461008857806364f62cc0146100a8578063ba0bba40146100d3578063d0e30db0146100ea578063e4fc6b6d146100f4578063faa56de2146100fe578063fc4333cd14610115575b600080fd5b6100a66004803603810190808035906020019092919050505061012c565b005b3480156100b457600080fd5b506100bd6103a3565b6040518082815260200191505060405180910390f35b3480156100df57600080fd5b506100e86103a9565b005b6100f2610476565b005b6100fc6104e2565b005b34801561010a57600080fd5b506101136105df565b005b34801561012157600080fd5b5061012a61074c565b005b60008060009150600190505b600454811115156101c2573373ffffffffffffffffffffffffffffffffffffffff166006600083815260200190815260200160002060000160029054906101000a900473ffffffffffffffffffffffffffffffffffffffff1673ffffffffffffffffffffffffffffffffffffffff1614156101b5578091506101c2565b8080600101915050610138565b60076000600554815260200190815260200160002060010160009054906101000a900460ff161515156101f457600080fd5b60008211151561020357600080fd5b6006600083815260200190815260200160002060000160019054906101000a900460ff16151561023257600080fd5b6007600060055481526020019081526020016000206004015460015414151561025a57600080fd5b3373ffffffffffffffffffffffffffffffffffffffff166108fc849081150290604051600060405180830381858888f193505050501580156102a0573d6000803e3d6000fd5b5060016006600084815260200190815260200160002060000160006101000a81548160ff021916908315150217905550600160076000600554815260200190815260200160002060010160006101000a81548160ff0219169083151502179055503360076000600554815260200190815260200160002060010160016101000a81548173ffffffffffffffffffffffffffffffffffffffff021916908373ffffffffffffffffffffffffffffffffffffffff160217905550826007600060055481526020019081526020016000206002018190555082600154036007600060055481526020019081526020016000206003018190555061039e6104e2565b505050565b60045481565b6004600081548092919060010191905055503360066000600454815260200190815260200160002060000160026101000a81548173ffffffffffffffffffffffffffffffffffffffff021916908373ffffffffffffffffffffffffffffffffffffffff160217905550600060066000600454815260200190815260200160002060000160006101000a81548160ff021916908315150217905550600060066000600454815260200190815260200160002060000160016101000a81548160ff021916908315150217905550565b600160066000600454815260200190815260200160002060000160016101000a81548160ff021916908315150217905550600054600760006005548152602001908152602001600020600401540160076000600554815260200190815260200160002060040181905550565b6000806001600454036007600060055481526020019081526020016000206003015481151561050d57fe5b049150600190505b600454811115156105db57600015156006600083815260200190815260200160002060000160009054906101000a900460ff16151514156105ce576006600082815260200190815260200160002060000160029054906101000a900473ffffffffffffffffffffffffffffffffffffffff1673ffffffffffffffffffffffffffffffffffffffff166108fc839081150290604051600060405180830381858888f193505050501580156105cc573d6000803e3d6000fd5b505b8080600101915050610515565b5050565b3373ffffffffffffffffffffffffffffffffffffffff16600360009054906101000a900473ffffffffffffffffffffffffffffffffffffffff1673ffffffffffffffffffffffffffffffffffffffff16141561074a5760056000815480929190600101919050555060055460076000600554815260200190815260200160002060000181905550600060076000600554815260200190815260200160002060010160006101000a81548160ff021916908315150217905550600060076000600554815260200190815260200160002060010160016101000a81548173ffffffffffffffffffffffffffffffffffffffff021916908373ffffffffffffffffffffffffffffffffffffffff1602179055506000600760006005548152602001908152602001600020600401819055506000600760006005548152602001908152602001600020600201819055506000600760006005548152602001908152602001600020600301819055505b565b3373ffffffffffffffffffffffffffffffffffffffff16600360009054906101000a900473ffffffffffffffffffffffffffffffffffffffff1673ffffffffffffffffffffffffffffffffffffffff16141561088657600060076000600554815260200190815260200160002060010160006101000a81548160ff021916908315150217905550600060076000600554815260200190815260200160002060010160016101000a81548173ffffffffffffffffffffffffffffffffffffffff021916908373ffffffffffffffffffffffffffffffffffffffff1602179055506000600760006005548152602001908152602001600020600401819055506000600760006005548152602001908152602001600020600201819055506000600760006005548152602001908152602001600020600301819055505b5600a165627a7a72305820a48f717dc5b1c08de8f67563436ee7cb433252a3d7b4009f00cc42dff5a1f0800029",
  "source": "pragma solidity ^0.4.2;\n\ncontract Bidding {\n\n\tstruct Candidate {\n\t\tbool hasWithdrawn;\n\t\tbool hasDeposited;\n\t\taddress depositer;\n\t}\n\t\n\tstruct Cycle {\n\t\tuint month;\n\t\tbool isWithdrawn;\n\t\taddress withdrawer; // address of withdrawer\n\t\tuint amountWithdrawn;\n\t\tuint amountRmaining;\n\t\tuint amountDeposited;\n\t}\n\n\tuint private amount; // constant\n\tuint private totalDeposit; // constant\n\tuint private totalUsers;\n\taddress private ownerAddress;\n\tuint public numOfCandidates;\n\tuint private cycleNumber;\n\n\n\tmapping( uint => Candidate ) private candidates;\n\tmapping( uint => Cycle ) private cycles;\n\n\tconstructor () public {\n\t\townerAddress = msg.sender;\n\t\ttotalUsers = 2;\n\t\tamount = 5;\n\t\ttotalDeposit = 10;\n\t\tBiddForMonth();\n\t}\n\n\tfunction BiddForMonth() public {\n\t\tif(ownerAddress == msg.sender) {\n\t\t\tcycleNumber++;\n\t\t\tcycles[cycleNumber].month = cycleNumber;\n\t\t\tcycles[cycleNumber].isWithdrawn = false;\n\t\t\tcycles[cycleNumber].withdrawer = 0;\n\t\t\tcycles[cycleNumber].amountDeposited = 0;\n\t\t\tcycles[cycleNumber].amountWithdrawn = 0;\n\t\t\tcycles[cycleNumber].amountRmaining = 0;\n\t\t}\n\t}\n\n\tfunction clean() public {\n\t\tif(ownerAddress == msg.sender) {\n\t\t\tcycles[cycleNumber].isWithdrawn = false;\n\t\t\tcycles[cycleNumber].withdrawer = 0;\n\t\t\tcycles[cycleNumber].amountDeposited = 0;\n\t\t\tcycles[cycleNumber].amountWithdrawn = 0;\n\t\t\tcycles[cycleNumber].amountRmaining = 0;\n\t\t}\n\t}\n\n\tfunction setup() public{\n\t\tnumOfCandidates++;\n\t\tcandidates[numOfCandidates].depositer = msg.sender;\n\t\tcandidates[numOfCandidates].hasWithdrawn = false;\n\t\tcandidates[numOfCandidates].hasDeposited = false;\n\t}\n\t\n\tfunction deposit() payable public {\n\t\t// chk if user has not already deposited\n\t\t// makes deposit to the particular month cycle\n\t\t// ownerAddress.transfer(amount);\n\t\tcandidates[numOfCandidates].hasDeposited = true;\n\t\tcycles[cycleNumber].amountDeposited = cycles[cycleNumber].amountDeposited + amount;\n\t}\n\n\tfunction withdraw(uint _amount) payable public {\n\t\t// Check if user has already withdrawn\n\t\t// Withdraw particular month cycle\n\t\tuint candidateId = 0;\n\t\tfor(uint i=1; i<=numOfCandidates; i++) {\n\t\t\tif(candidates[i].depositer == msg.sender){\n\t\t\t\tcandidateId = i;\n\t\t\t\tbreak;\n\t\t\t}\n\t\t}\n\t\trequire(!cycles[cycleNumber].isWithdrawn);\n\t\trequire(candidateId>0);\n\t\trequire(candidates[candidateId].hasDeposited);\n\t\trequire(totalDeposit == cycles[cycleNumber].amountDeposited);  // check if all users have deposited\n\t\tmsg.sender.transfer(_amount);\n\t\tcandidates[candidateId].hasWithdrawn = true;\n\t\tcycles[cycleNumber].isWithdrawn = true;\n\t\tcycles[cycleNumber].withdrawer = msg.sender;\n\t\tcycles[cycleNumber].amountWithdrawn = _amount;\n\t\tcycles[cycleNumber].amountRmaining = totalDeposit - _amount;\n\t\tdistribute();\n\t}\n\n\tfunction distribute() payable public {\n\t\tuint amountToBeDistriuted = cycles[cycleNumber].amountRmaining/(numOfCandidates-1);\n\t\tfor(uint i=1; i<=numOfCandidates; i++) {\n\t\t\tif(candidates[i].hasWithdrawn == false){\n\t\t\t\tcandidates[i].depositer.transfer(amountToBeDistriuted);\n\t\t\t}\n\t\t}\n\n\t}\n\t\n}",
  "sourcePath": "/Users/shubgupta/Documents/Shubham/etherium/GOT/contracts/Bidding.sol",
  "compiler": {
    "name": "solc",
    "version": "0.4.24+commit.e67f0147.Emscripten.clang"
  },
  "schemaVersion": "2.0.1",
  "updatedAt": "2018-10-27T09:50:58.009Z"
}